:1000000055C000006EC000006CC000006AC0000057
:1000100068C0000066C0000064C0000062C000004C
:1000200060C000005EC000005CC000005AC000005C
:10003000F8C0000056C0000054C0000052C00000CC
:1000400050C000004EC000004CC000004AC000007C
:1000500048C0000046C0000044C0000042C000008C
:1000600040C000003EC000003CC000003AC000009C
:1000700038C00000D5C0000034C0000032C000000D
:1000800030C000002EC000002CC000002AC00000BC
:1000900028C0000026C0000024C0000022C00000CC
:1000A00020C000001EC000001CC0000011241FBEA4
:1000B000CFEFDAE0DEBFCDBF11E0A0E0B1E0E6EDCA
:1000C000F6E002C005900D92A832B107D9F721E001
:1000D000A8E2B1E001C01D92A234B207E1F79ED2BE
:1000E000F8C28ECF0F931F93CF93DF93EC016AD0AA
:1000F00076D080ED7DD073D080E07AD070D062D0A1
:1001000081ED76D06CD008E211E081E078D067D044
:1001100084D0F80181938F0162D0F1E00E321F0785
:10012000A1F780E06CD05BD078D080932E0153D0C3
:1001300060912A01509129014091280170912B0171
:10014000777030912C0120912D0180912E01E62FA6
:10015000EF73E295EF709AE06F70E99F600D1124E4
:100160006883652F6F7762956F705F70699F500D20
:1001700011245983542F5F7752955F704F70599FA8
:10018000400D11244A837B83432F4F7342954F7058
:100190003F70499F300D11243C8324FB332730F9F5
:1001A0002F70399F200D11242D83282F22952F7019
:1001B0008F70299F800D11248E83DF91CF911F9125
:1001C0000F9108953C9A84EA8093BC008091BC0012
:1001D00087FFFCCF089584E98093BC0008958BE5E8
:1001E00090E02091BC0027FD02C00197D1F708954F
:1001F0003C9A8093BB0084E88093BC0008958823D8
:1002000039F08091BC008F70806C8093BC000895A1
:100210008091BC008F708068F8CF8091BB000895FA
:1002200018950F920FB60F921F9211248F930FB64D
:10023000F894A89580916000886180936000109286
:1002400060000FBE8F911F900F900FBE0F901895FA
:1002500090917A00906990937A0080937C00F89452
:1002600083B7817F826083BF83B7816083BF8091C2
:100270007A00886480937A007894889583B78E7F1B
:1002800083BF80917A0086FDFCCF809178009091A9
:100290007900089580912401DBDF9C01A8E8B3E197
:1002A00009D22AE096958795779567952A95D1F793
:1002B000709341016093400180912501C9DF9C0149
:1002C000A8E8B3E1F7D13AE09695879577956795D9
:1002D0003A95D1F770933F0160933E0180912601DA
:1002E000B7DF9C01A8E8B3E1E5D14AE09695879590
:1002F000779567954A95D1F770933D0160933C01DE
:100300000895813049F42C9A613041F480912F0195
:10031000813021F42D9A08952C98F6CF2D980895C8
:10032000813009F42898613009F45D988FE99FE0E5
:100330000197F1F700C00000289A5D9A0895AADF9E
:100340008091400190914101209106013091070177
:100350002817390770F040913E0150913F01241752
:10036000350738F040913C0150913D012417350785
:1003700000F510923B0121E0209323012091000120
:100380003091010182179307C0F440913E015091D2
:100390003F014217530788F440913C0150913D01C1
:1003A0004217530750F421E020933B0110922301A0
:1003B00004C0209123012111E1CF2091040130914B
:1003C00005018217930770F040913E0150913F0163
:1003D0004217530738F040913C0150913D014217BC
:1003E000530700F510923A0121E020932201209159
:1003F00002013091030128173907C0F480913E01B2
:1004000090913F012817390788F480913C01909121
:100410003D012817390750F481E080933A0110928A
:10042000220104C0209122012111E1CF60913A0103
:1004300080913B0166CF2EDF81E080933B0180936A
:100440003A01109223011092220120914001309133
:10045000410180910601909107018217930770F086
:1004600040913E0150913F018417950738F040912B
:100470003C0150913D018417950728F410923B01EF
:1004800081E0809323018091040190910501281758
:10049000390770F020913E0130913F01281739074C
:1004A00038F020913C0130913D012817390748F47C
:1004B00010923A0181E08093220180933B011092D7
:1004C000230160913A0180913B011BCFCF93DF93D1
:1004D00000D000D000D00F92CDB7DEB7CE0101968C
:1004E00027E0FC0111922A95E9F7FCDD89818093D0
:1004F00038018A81809337018B81809336018C810A
:10050000809335018D81809334018E8180933301F6
:100510009F81909332018150990BFC01EA5EFE4F5E
:10052000208120933101865F9E4FFC018081809362
:10053000300127960FB6F894DEBF0FBECDBFDF9116
:10054000CF9108958FB780933901F894A89584B717
:10055000877784BFE0E6F0E080818861808380E374
:10056000808314BEA8958081806480838091390146
:100570008FBFEAE7F0E080818F77808383B7817F48
:10058000846083BF83B7816083BF889583B78E7F84
:1005900083BF0895ECE7F0E080818F738083EAE702
:1005A000F0E0808180688083808186608083EEE7D0
:1005B000F0E08081806E808384B1816784B92C985B
:1005C0002D982E98289A559A5D9A3F9A4798A5E6B5
:1005D000B0E08C9180688C93E8EDF0E080818062DF
:1005E000808389B58D7F89BD80818F778083E4E6A4
:1005F000F0E0808180628083808188608083808158
:10060000806480838C9188608C93808184608083F7
:100610008C9181608C9378940EDF58CF80E891E0C4
:100620000FB6F89480936100909361000FBEB2DF23
:1006300031DEC1E080917A00806880937A008091F9
:1006400064008F77809364007ADE40DF80916400DD
:1006500080688093640090913801809131019813F3
:100660000EC09091370180913001981740F02E9A7A
:10067000C0932F0160913A0180913B0142DE90913D
:1006800038018091090198130EC090913701809133
:100690000801981740F02E9810922F0160913A01AE
:1006A00080913B012EDE60913A0180913B0138DE62
:1006B00049DFC0CFA29FB001B39FC001A39F700DBF
:1006C000811D1124911DB29F700D811D1124911D5A
:0606D0000895F894FFCF2D
:1006D6000410D80E800CFE101E17002D0F2D0F0FC4
:1006E6001928370A1E321312121111111111111283
:0806F6001212010107060500C4
:00000001FF
