:100000000EC028C027C026C025C024C023C022C0DF
:1000100021C020C086C11EC01DC01CC01BC0112431
:100020001FBECFE5D1E0DEBFCDBF10E0A0E6B0E05F
:10003000EEEDF6E002C005900D92AC36B107D9F7AF
:1000400020E0ACE6B0E001C01D92A437B207E1F7B2
:1000500031D143C3D5CF2FB7F89460917000709120
:10006000710080917200909173002FBF08954F929C
:100070005F926F927F928F929F92AF92BF92CF9238
:10008000DF92EF92FF92CF9328B3247E8D599F4F3A
:10009000FC018081282B28BB609161007091620077
:1000A000072E000C880B990BF9D14B015C012BEA50
:1000B0003AEA4AEA5EE3A6D26B017C0120E030E036
:1000C00040E85FE351D187FD72C020E030E040E8B6
:1000D0005EE3C501B40196D22B013C0120E03FEF65
:1000E0004FE757E48BD218160CF03FC020E030E009
:1000F0004AE754E4C501B4013BD14B015C0120E067
:1001000030E04AE753E47ED26B017C0120E030E02E
:1001100040E85FE329D187FD25C020E03FEF4FE7AE
:1001200057E4C701B6016AD218169CF420E030E00B
:1001300040E251E4C501B40165D282D129E130E049
:100140006115710561F0C9010197F1F761507109FD
:10015000F7CFC701B60174D1CB010197F1F7CA956A
:10016000F1F712C061E070E0F7CF20E030E04FE738
:1001700053E4C701B60142D21816A4F4C301B20178
:100180005FD1CB010197F1F7CF91FF90EF90DF9016
:10019000CF90BF90AF909F908F907F906F905F9027
:1001A0004F900895C701B6014BD1C62FD8CFC1E0FB
:1001B000D6CFEF92FF920F931F93CF93DF93182F19
:1001C0007B01D0E0C0E007E0CE15DF05F9F08091BB
:1001D0006000112389F08F5F809360008091600040
:1001E000883014F01092600080916000082E000C9E
:1001F000990B3DDF2196E8CF81508093600080917C
:10020000600087FFF1CF00936000EECFDF91CF91C8
:100210001F910F91FF90EF90089560E070E381E0EF
:10022000C8DF88B3847E88BB80E593EC0197F1F743
:1002300060E070E380E0BDDF88B3847E88BB089512
:1002400087B38F6187BB88B3847E88BBC29880B533
:10025000816080BD80B5826080BDF8941ABC13BEF9
:1002600012BE8CE789BD8AB582608ABD83B7826081
:1002700083BF89B7806189BF7894EDDE60936C009D
:1002800070936D0080936E0090936F0088E893E107
:1002900029E130E0F9013197F1F70197D9F7C29AD6
:1002A00080E29EE429E130E0F9013197F1F701970E
:1002B000D9F7B3CFC5DFCFDEAB01BC0180916C00B5
:1002C00090916D00A0916E00B0916F00805C91489C
:1002D000AA4FBF4F84179507A607B70750F49DDFB5
:1002E000BADE60936C0070936D0080936E00909303
:1002F0006F00B1DE00916C0010916D0020916E00D6
:1003000030916F006017710782079307A0F6A3DE94
:1003100060936C0070936D0080936E0090936F00FB
:10032000CACF1F921FB61F9211248F939F93AF9332
:10033000BF938091700090917100A0917200B09174
:1003400073000196A11DB11D809370009093710000
:10035000A0937200B0937300BF91AF919F918F9162
:100360001F901FBE1F901895D4D008F481E0089507
:100370000CD00AC102D140F0F9D030F021F45F3F37
:1003800019F0EBC0511134C1EEC00FD198F399238D
:10039000C9F35523B1F3951B550BBB27AA27621749
:1003A0007307840738F09F5F5F4F220F331F441F8E
:1003B000AA1FA9F333D00E2E3AF0E0E830D09150C6
:1003C0005040E695001CCAF729D0FE2F27D0660FB3
:1003D000771F881FBB1F261737074807AB07B0E8F2
:1003E00009F0BB0B802DBF01FF2793585F4F2AF008
:1003F0009E3F510568F0B1C0FBC05F3FECF3983EF3
:10040000DCF3869577956795B795F7959F5FC9F764
:10041000880F911D9695879597F90895E1E0660FED
:10042000771F881FBB1F621773078407BA0720F066
:10043000621B730B840BBA0BEE1F88F7E0950895CF
:10044000BCD088F09F5790F0B92F9927B751A0F0F2
:10045000D1F0660F771F881F991F1AF0BA95C9F758
:1004600012C0B13081F0C3D0B1E00895C0C0672F91
:10047000782F8827B85F39F0B93FCCF38695779508
:100480006795B395D9F73EF49095809570956195F1
:100490007F4F8F4F9F4F0895E89409C097FB3EF41C
:1004A00090958095709561957F4F8F4F9F4F9923C1
:1004B000A9F0F92F96E9BB279395F695879577953F
:1004C0006795B795F111F8CFFAF4BB0F11F460FFFF
:1004D0001BC06F5F7F4F8F4F9F4F16C0882311F057
:1004E00096E911C0772321F09EE8872F762F05C06B
:1004F000662371F096E8862F70E060E02AF09A9506
:10050000660F771F881FDAF7880F9695879597F9FA
:100510000895990F0008550FAA0BE0E8FEEF161694
:100520001706E807F907C0F012161306E407F507E7
:1005300098F0621B730B840B950B39F40A2661F05B
:10054000232B242B252B21F408950A2609F4A140FE
:10055000A6958FEF811D811D089597F99F6780E80B
:1005600070E060E008959FEF80EC089500240A9405
:100570001616170618060906089500240A9412167E
:100580001306140605060895092E0394000C11F4B1
:10059000882352F0BB0F40F4BF2B11F460FF04C05E
:1005A0006F5F7F4F8F4F9F4F089557FD9058440FB7
:1005B000551F59F05F3F71F04795880F97FB991FC2
:1005C00061F09F3F79F0879508951216130614067F
:1005D000551FF2CF4695F1DF08C01616170618060C
:1005E000991FF1CF86957105610508940895E894E7
:1005F000BB2766277727CB0197F908958ADF08F490
:100600008FEF08950AD0C0CFB1DF28F0B6DF18F021
:10061000952309F0A2CFA7CFEBCFC7DFA8F399238B
:10062000D9F35523C9F3950F50E0551FAA27EE279C
:10063000FF27BB2700240894679520F4E20FF31FDF
:10064000B41F0A1E220F331F441FAA1F6695A9F765
:10065000779530F4F30FB41F0A1E121E08F4639549
:10066000330F441FAA1F221F769599F7879520F410
:10067000B40F0A1E121E631F440FAA1F221F331F2E
:100680008695A9F7862F712D602D11249F57504014
:100690008AF0E1F088234AF0EE0FFF1FBB1F661FB0
:1006A000771F881F91505040A9F79E3F510570F069
:1006B00054CF9ECF5F3FECF3983EDCF38695779561
:1006C0006795B795F795E7959F5FC1F7FE2B880F64
:0E06D000911D9695879597F90895F894FFCFA0
:0C06DE00FF5E0109081810120203010061
:00000001FF
